:020000041000EA
:1000000000B5324B212058609868022188439860DF
:10001000D860186158612E4B002199600221596106
:100020000121F02299502B49196001219960352056
:1000300000F044F80222904214D00621196600F024
:1000400034F8196E01211966002018661A6600F04E
:100050002CF8196E196E196E052000F02FF8012189
:100060000842F9D1002199601B49196000215960AB
:100070001A491B48016001219960EB211966A021F2
:10008000196600F012F800219960164914480160C1
:100090000121996001BC002800D000471248134993
:1000A000086003C880F30888084703B5996A0420EC
:1000B0000142FBD001200142F8D103BD02B5186610
:1000C0001866FFF7F2FF186E186E02BD00000240BE
:1000D000000000180000070000035F00212200005C
:1000E000F4000018222000A00001001008ED00E03C
:1000F00000000000000000000000000074B24E7A12
:1001000000200420F7010010C3010010C5010010F9
:10011000C1010010C1010010C1010010C101001097
:10012000C1010010C1010010C1010010C701001081
:10013000C1010010C1010010C9010010CB01001065
:10014000CD010010CD010010CD010010CD01001037
:10015000CD010010CD010010CD010010CD01001027
:10016000CD010010CD010010CD010010CD01001017
:10017000CD010010CD010010CD010010CD01001007
:10018000CD010010CD010010CD010010CD010010F7
:10019000CD010010CD010010CD010010CD010010E7
:1001A000CD010010CD010010CD010010CD010010D7
:1001B000CD010010CD010010CD010010CD010010C7
:1001C00000BE00BE00BE00BE00BE00BE00F04BF888
:1001D000103800BEF2EB88716C21001088210010ED
:1001E0003402001090A31AE700202149086006C8D5
:1001F00081F3088810471F48006800282FD10DA4FC
:100200000ECC002902D000F012F8F9E71A491B4A77
:10021000002000E001C19142FCD1194988471949E9
:1002200088471949884700BEFDE701C901C29A42C3
:10023000FBD3704788210010C00000202C02002052
:10024000F42200100000042000000420F42200101A
:1002500000100420001004200000000070470B482C
:1002600001F0F6FA0047EFF30580C0B270470000D6
:1002700008ED00E0000000D030020020A0060020C1
:10028000711100104D0500103D120010575600006E
:1002900006005250ABB360531F21001006005250AD
:1002A000861C03022A210010060052505422A29DEF
:1002B0003721001005005250DE65F468F42200106A
:1002C000F8B5C04610B5064C2378002B07D1054B76
:1002D000002B02D0044800E000BF0123237010BDB2
:1002E0003003002000000000C8200010044B10B5AF
:1002F000002B03D00349044800E000BF10BDC046F6
:100300000000000034030020C820001070B5150064
:10031000040010000E0000F089F9280000220121DD
:1003200000F06EF90023044924010A195560665053
:100330009360D36070BDC0468C03002010B50A22C4
:1003400070210020FFF7E2FF0B2229210120FFF797
:10035000DDFF0C222A210220FFF7D8FF0E222B21DD
:100360000320FFF7D3FF0D221F210420FFF7CEFF4C
:10037000132200210520FFF7C9FF0F223A21062092
:10038000FFF7C4FF12223D210720FFF7BFFF102215
:100390003B210820FFF7BAFF11223C210920FFF77B
:1003A000B5FF10BD70B5D025060001242D066B6881
:1003B000DB082342FBD12022094B99691142FCD171
:1003C000F2B21A606B68DB082342FBD019200021CF
:1003D00000F080FC6B689B082342E8D070BDC046EB
:1003E0000080034010B500F0E9FC002905D0FA2296
:1003F0000023920001F092FA10BDFA21890001F069
:100400004BFAF9E7F7B5D0274F4C05013F066619BF
:1004100072687B680090D3400122134251D1C820FA
:10042000002100F057FCB268002A09D12859FFF7D3
:10043000B9FFFFF7D7FFB06080239B047B61F7BD56
:100440002B59702B3DD071687B68CB4001210B424A
:1004500022D0D027009A3F061201A6187B6800928E
:100460007268D3400122134250D1F368002B4DD162
:10047000B368002B4ADAFFF7B5FFB368C018009BDA
:100480001D283FDDE058FFF78DFFFFF7ABFF01238D
:100490004042B060F360CFE7002ADADDFFF7A2FF49
:1004A000B368C01AFA235B00984207DBFFF79AFF94
:1004B0004042B06080239B04BB61C0E72B59702B86
:1004C000C7D1D02766193F0671687B680122CB40EF
:1004D0001342B4D07B68CB401342B0D0B368002B3A
:1004E000ADD0802063591843FFF75CFF0023B36051
:1004F000F36080239B04BB61802360591843FFF79E
:1005000051FF9CE7E3580193702BDAD0009A7B6887
:10051000A6187268D34001221900114000911342BD
:10052000CFD1F368012BCCD1B368002BC9DAFFF728
:1005300059FFB368C0181D28C3DDFFF753FF009BA8
:100540004042B060F360B5E78C03002070B5D02462
:1005500004262406022000F069F80320A66200F0B9
:1005600065F808231920A36200F060F88023962123
:10057000164D9B046362C901280000F0F1F80221C6
:10058000300000F027F86223EA6AFA2053406E2216
:1005900013400F4A8000136000F0B2FB1A2000F0F5
:1005A00045F88023DB0463626361FFF7C7FE1B200D
:1005B00000F03CF880231B05636263610024200087
:1005C0000134FFF71FFF0A2CF9D1F7E70080034041
:1005D0002C900340084B8200D218402310B51468B9
:1005E000C0006340C0242340802464012243136080
:1005F000024BC018416010BD04C0014000400140E2
:10060000094B8000C0184B1E9941531E9A41C900E6
:10061000036892001143594080230C225B01114072
:10062000184301607047C04604C001400123D02236
:10063000834010B51206936205219361FFF7CAFF4C
:1006400010BD0000EFF3108072B6034A1368002B50
:10065000FCD0BFF35F8F70472C0100D0BFF35F8FDA
:100660000022024B1A6080F3108870472C0100D0E2
:100670000722CB08C35C0120114088401840431E6C
:100680009841C0B27047F8B505000C001700FFF79D
:10069000D9FF210006002800FFF7EAFF002803D059
:1006A0002100380000F0CCFD07210123E2080C40B6
:1006B000A340A95C30000B43AB54FFF7CFFFF8BD5C
:1006C000024B18688007C00F7047C04600C0064044
:1006D0000021044B044ABFF35F8F02C39342FAD157
:1006E0007047C046000100D0800100D0044A107855
:1006F000431CDBB2172B01D8137070471023FBE7A4
:100700007001002070B5060006200C0000F096FE77
:100710002100C00001F0C0F80124C50907D00E4B2C
:100720009D4215D87F23184000192C0045088020D1
:10073000002374628001B5622C36064333600620C4
:1007400000F07CFEA1014919800001F0A5F870BD00
:100750000025024CEBE7C046FEFF0000FFFF000053
:1007600070B5040006200D0000F068FE00282ED0B1
:10077000194B9C422CD08023DB03184A1849136084
:10078000184A136018008A689043FBD1164B8021E9
:10079000E3185A425341154A5B0049009952200020
:1007A0002900FFF7AFFF6023E26A210053406E2269
:1007B000134080222C3152010A4313600C4B10224B
:1007C000236380239B010B431A600323A36470BD42
:1007D00080231B04D1E7C0460080034000E00040B6
:1007E00000C0004000F000400080FCBF5806002020
:1007F0000103000030B5084D01226C6A0023A142BC
:1008000006D8AD6A1300854202D20B1B591E8B41DC
:100810001340180030BDC0460040054083680A48B8
:1008200010B5091812181201090159189B185C68B3
:100830004A680120944205D803D11A680B689A428D
:1008400000D80020C0B210BDFFFFFF0F70B50C0034
:100850000500080000F0A6FA200000F06FFB200061
:10086000064900F0C3FAFFF741FF054B2C75C0188D
:10087000044B8000A4006860E55070BDA50900101D
:1008800040000034300400200A4B1868EFF3108257
:1008900072B601680029FCD0BFF35F8F1B68BFF3FD
:1008A0005F8F0021196082F3108840BF0020002173
:1008B0007047C04644060020032330B51C00534354
:1008C0004C43033BC318033C9970015D0519002993
:1008D00001D12A7030BD5970FBE70000F0B585B03A
:1008E00002930CAB1C780DAB1B78070005680192D6
:1008F0000393002C10D1AC7B002C47D0032363431F
:100900002A68033BD3185A78AA73002A00D1EA73E5
:1009100000229A705A701A70214BBA68E3181B01B2
:10092000D318019A1A60029A5A600A9A9A600B9A2E
:10093000DA60032363432A68033BD31800229A70CA
:100940005A701A706E7B964228D022003100A86837
:100950006B68984700281CD0220031002868FFF7F8
:10096000ABFF6E73A64211D1387D019A029B00F055
:1009700087FA051E06D0039B002B03D1210038689F
:1009800000F0BEFB0E9B002B00D01D70200005B0B8
:10099000F0BD320021002868FFF78EFF2600E0E757
:1009A000FFFFFF0F0023F0B58FB00B935D4B82006C
:1009B000D4580C9000F002FA02000B006068EFF3CC
:1009C0001081089172B601680029FCD0BFF35F8FD7
:1009D00021688C46497B0791002974D052480D1834
:1009E000A1682D014D192E686F6830003900801AFA
:1009F000994100295DDC01D100285AD100216046CF
:100A000000F074FB2E686F68AB68079A0A93E3687E
:100A1000ED689B18013B1B780B931B0203430020DE
:100A200023616368BFF35F8F00221A60089B83F322
:100A300010880A9B93426FD00B9B29001802079BDA
:100A400018430A9B9847089009916268EFF3108356
:100A50000D9372B61368002BFCD0BFF35F8F099B18
:100A6000002B36DA2369002B43D00898099932000D
:100A70003B00121A8B419F4202D804D1964202D900
:100A80000122524213000021049101310391079980
:100A9000200002910A9901950091FFF71FFF0022A3
:100AA00063682261BFF35F8F1A600D9B83F3108828
:100AB00080E7002532003B000C9800F0E1F90026A9
:100AC00000270A95ADE7079D0026002728000A9514
:100AD000A7E7089B099A13430BD02369002B08D082
:100AE00000F06CF9089A099B06000F0092197B41EF
:100AF000C1E72268D17B002906D003234B4311684C
:100B0000CB180799033B5970079BD373E168013BEE
:100B1000CA5C0132CA54C2E7002800D04AE70FB0CD
:100B2000F0BDC04630040020FFFFFF0F10B5094C98
:100B30006368002B09D1102120682300064A00F0C9
:100B400085FA03212000FFF781FE0A21034800F007
:100B500015FA10BD740100201D0800104406002085
:100B6000F0B58DB0079314AB1B78002709931F23B2
:100B70000600069204AA9B181F707268EFF3108596
:100B800072B61368002BFCD0BFF35F8F1F2404AB39
:100B9000E418139B30000193129B04940093039775
:100BA000069A079B0297FFF799FE020000208242F7
:100BB00003D0F3689B18013B18787168BFF35F8F0F
:100BC0000F6085F31088002A28D02178002928D1C9
:100BD000000210430DB0F0BD04000D1E12DA069A9B
:100BE000079B121BAB411D00079B1400AB4203D8AF
:100BF00005D1069BA34202D9012464422500069434
:100C00000795BAE700F0DAF802000B00A4185D417E
:100C1000A942F1D8F3D1A042F1D9EDE70120404239
:100C2000D8E7099B002B06D0129B00201399984708
:100C300003000B43D0D10020CCE70000F0B5060044
:100C40000F0006246442E517A4197D4185B08D424A
:100C500002D803D1844201D90024002500F0AEF867
:100C600022002B00121A8B41002B08DC01D1002A34
:100C700005D13000390000F0ABF805B0F0BD00231D
:100C800002930193104B2200009310482B00FFF7B2
:100C900067FF0028EDDB20002900FFF7ABFD0028EF
:100CA000E7D10B4B1868EFF3108272B60168002988
:100CB000FCD0BFF35F8F1B68BFF35F8F002119600B
:100CC00082F3108820BFE6E7890800107401002035
:100CD0004406002070B504000D0000F06FF802001B
:100CE0000B0020002900801859418B4202D804D102
:100CF000824202D901204042C117FFF79FFF70BD19
:100D0000FA2210B500239200002101F047F8FFF706
:100D1000E1FF10BDF7B5EFF305823F231A40100045
:100D200001921038EFF3108772B6184B1B68002B36
:100D3000FBD0BFF35F8F012634008440144D154B68
:100D40006C631B781A00C24094466146002231420F
:100D50000AD0114E696A8500AE59B1420FD30F4ACD
:100D60000C49A343AA580B70BFF35F8F00230749B8
:100D70000B6087F310889A4200D09047F7BD019B23
:100D800007499B005B181C681C60EDE7280100D038
:100D9000004005409E060020480600204C0300202D
:100DA000D03F054010B50100024A0348FFF76BFC35
:100DB00010BDC046C82000105C060020034B596AD5
:100DC0000A00986A596A8A42FAD170470040054081
:100DD000054B5A6A8A42FCD38A4202D19A6A8242FD
:100DE00000D370475A6AF7E700400540F7B50400A2
:100DF0000D00EFF31083009372B61C4F3B68002B7D
:100E0000FCD0BFF35F8FA300194E0193002D1BD0C0
:100E1000200000F051FB86420BD03100200000F092
:100E200053FB0121200000F03FFB0123A340114AA6
:100E30001360114B019A9D50BFF35F8F00233B60FD
:100E4000009B83F31088F7BD0B4BA2009D5001223D
:100E5000A2400A4920000B7893430B70310000F048
:100E600053FB2900200000F01FFBE5E7280100D01C
:100E7000150D0010386005404C0300209E06002030
:100E8000F0B585B01E0004000192FFF797FF8E4277
:100E900003D847D1019B834244D9EFF310830393D6
:100EA00072B6214B1B68002BFBD0BFF35F8F01256F
:100EB000A5401E4B1E4F1B7800932B43DBB20293C1
:100EC000029A1A4B1A70019A231D9B007D63DA5116
:100ED000184AA3009E503B6A2B420AD10020BFF360
:100EE0005F8F0023104A1360039B83F3108805B0C3
:100EF000F0BDFFF763FF8E42F0D802D1019B834221
:100F0000ECD8029B009A01209342E8D01F230200F4
:100F10001C40A240084B3D627D631A60034B009A5F
:100F20001A70DCE70120E2E7280100D09E060020CD
:100F3000004005404806002080E200E010B5EFF3D5
:100F4000108472B60A490B68002BFCD0BFF35F8F88
:100F500001238340074A0848136202789A430270CB
:100F6000BFF35F8F00230B6084F3108810BDC04671
:100F7000280100D0004005409E060020024BC91801
:100F8000890001607047C0464000003410B504007D
:100F9000FFF7ACFB01002000FFF7F0FFFF232371F8
:100FA000BFF35F8F10BD10B50400FFF79FFB01007A
:100FB0002000FFF7E3FFFF23A380BFF35F8F10BD87
:100FC000032330B51C0053434C43033BC318033C7D
:100FD0009970015D0519002901D12A7030BD597041
:100FE000FBE770B506000C001500002912D0002A9E
:100FF00009D0806873689847002806D02A0021002D
:101000003068FFF7DDFF200070BD22002900306846
:10101000FFF7D6FF2C00F6E70122002330B5047B52
:10102000827343730268C47303200133DDB2AC42A0
:1010300005D8002360431218033A537030BD0100F5
:1010400059435118033901354D70EEE710B501735E
:1010500042608360FFF7E0FF10BD70B50400002917
:101060001DD00568032003004B43033BEB185A785F
:10107000002A14D0002650430338281845784670BB
:101080005E702000FFF7ADFF290006002000FFF78B
:10109000E4FF310002002000FFF7A3FF0100080079
:1010A00070BDF7B503273E004E430368033E0D00B5
:1010B000995D04000192FFF7D0FF019B002B08D03F
:1010C000E37B002B04D05F432368DF19033F7D706F
:1010D000E5732268002805D0032300214343D31879
:1010E000033B9970002392195370FEBD70B5457B88
:1010F0000A0029000400FFF7D4FF6073280070BDC8
:1011000070B50400081E07D0637B8B4205D1012116
:101110002000FFF7EBFF012070BD032633004B4397
:101120002568033BEB189A78101EF5D07243033AFA
:10113000A818AA5C8A4211D15A78027000222000B5
:101140009A705A700132FFF7ACFF617B02002000F9
:10115000FFF747FF6073DEE7002AEFD07243033AE0
:10116000A81842788A42F7D15A784270E6E7000020
:10117000234B244A70B51A60234E244B244D336010
:101180001900AA689143FBD1224C234B9C4224D3E3
:1011900000F0DCF8214B3360AB68DB018033FBD11E
:1011A00040221F4B1F489A675A671A67DA661E4B20
:1011B000984215D31D4C1E4DA168C022280000F096
:1011C00053FEA560FFF784FA00F0A0FAFFF7AEFC2B
:1011D000184C194B9C420FD370BD08CC9847D4E7EC
:1011E000040003680834002B03D0FFF7DCFE200066
:1011F000DDE7FFF7CBFEFAE708CC9847E9E7C04602
:1012000000E00040BFCDFBFE00F00040FE7F3C0050
:1012100000C000401802002028020020FFFFFF014C
:1012200000F00140100200201802002000ED00E054
:1012300000000020280200202C02002000BEFDE754
:101240000FB407B5074800F0D5FE049B002B07D06C
:1012500005A91800019100F0DBFA034800F0CAFE6E
:1012600000BEFDE7EA200010F820001010B501488C
:10127000FFF7E6FFFA200010F0B585B003920A9A56
:1012800005000F0000209A4240D80C241A0E1B02C1
:10129000029201930A9A03000299019800F03EFB22
:1012A0006C43284B0600E4186368834200D26060F8
:1012B0002B1FDBB20093C023009A9B012343012A1A
:1012C00026D8012F24D103221A60A3683B42FCD008
:1012D000039A236852015A408021E02349011A40B1
:1012E000009B21430A60012B21D9802380229B018E
:1012F000234312011A6001980023320002996660AC
:1013000000F00CFB104BAD005851012005B0F0BDB2
:10131000802212011A600C4BAA00D1580029D7D0A4
:10132000586900F0B9FA01300138FDD1D0E7032245
:1013300023687B4013400B600123BB40A26813422B
:10134000FCD0D2E7008000405C03002037B50C20C1
:1013500000F03CFAFFF7B4F900280AD000232B4A2A
:101360002B489900013388500A2BFAD1294B53623C
:1013700037BD294DA86700F031FA0122274B1A60CA
:101380006B6C012BFCD10322254B1A60AC6B012C3A
:10139000FCD10225210000950623224A224800F0B4
:1013A000C7F9210000950523204A214800F0C0F923
:1013B000204B2900204D009300220420FFF75CFF02
:1013C0002B002100002200950520FFF755FF002289
:1013D0000F4C1100230000940720FFF74DFF00225F
:1013E0002300110000940820FFF746FF0022094B5C
:1013F0001100009309202300FFF73EFF00222B007D
:10140000110000950620FFF737FFB1E75C030020CD
:10141000006CDC021BB70000008000403CB00040C4
:1014200030B00040002F68590080024000389C1CFA
:1014300000C00240001BB70040597307014B8000F9
:10144000C05870475C030020074B10309B68800039
:10145000C150BFF35F8FBFF35F8F0021034B196053
:1014600082F310887047C04600ED00E0240100D0F0
:1014700001228240034B1B6813405A1E9341D8B28D
:101480007047C04600E100E0002904D0034B18601B
:10149000034B18607047034BFBE7C04680E200E057
:1014A00000E100E080E100E00123834010B5180076
:1014B000FFF7EAFF10BD0000024B10309B68800070
:1014C000C058704700ED00E070B504000D00EFF368
:1014D000108672B60A4A1368002BFCD0BFF35F8FE8
:1014E0002000FFF7E9FF074B984203D0A84201D044
:1014F000FFF7BCFE320029002000FFF7A5FF70BDFA
:10150000240100D0CD010010F0B585B00500019197
:10151000EFF31083029372B6494A1368002BFCD094
:10152000BFF35F8F2F00474B10379B68BA00D4582A
:10153000454B9C4269D0019A944200D17EE0434BD6
:10154000E31A2F2B61D82800FFF792FF00210390A8
:101550002800FFF7A9FFBFF35F8FFEF784FE061E8A
:1015600003D0874201D0FFF781FE012322000C2126
:101570009A4313008C46002206219868019F595611
:10158000B84214D100291ADA002E4AD1002A46D0D6
:10159000FF2191712E4991802E492C480A789A7129
:1015A0002D4A1B1A5B415A43120D0A7029E000298B
:1015B00027DB624651431A00244B5B18DCE70C2002
:1015C0004843224A1618B7689F60F779DF710627EB
:1015D000F7579F71B7797F2F1ED8B688D21A760534
:1015E000361580191218E0201205520D0002024330
:1015F0009A800C224A43154B9B18164A107811709A
:10160000987128000399FFF74FFF21002800029AE4
:10161000FFF71AFF05B0F0BDBD221202E8E70A4C41
:10162000BAE70E4A0E49D21A083A5002400D014359
:1016300099800C4952080A43DA80E2E71C00E4E78B
:10164000240100D000ED00E0CD0100109C0100203D
:1016500000BDFFFF9D060020AAAA0000D6010020C1
:1016600000F0FFFF00F8FFFFF8B50123034304007B
:101670001E00FEF7F8FDEFF3108772B61C4B1B68D7
:10168000002BFBD0BFF35F8F1A4922001A4B521A6E
:10169000524153431B0D5BB29C46184B9A68830022
:1016A000D258080015000022B54214D1134A14493B
:1016B0009268D150134B1A78A27162461A70BFF328
:1016C0005F8F00230A4A136087F31088F8BD013248
:1016D0000C30042AEED00623C3566345F7D10C2301
:1016E0005A43F33389188B71074B8B80E2E7C0466E
:1016F000240100D09C010020AAAA000000ED00E017
:10170000CD0100109D06002000BDFFFF054B064ADD
:101710001360064A136053609360D3601361536192
:10172000936170478080808000E400E004E400E082
:10173000F8B504000C2017001E000D0000F0ACF8F6
:101740001D494143380000F0A7F8069A33041203FC
:1017500013432268002A0FDA3F2122680A40AA4276
:101760000AD1A2681205120D824205D1EE21E2686B
:10177000C9020A409A421BD0104A944219D08022D2
:1017800052010F490F4E0A600F490A601700B168F5
:101790008F43FBD1C022211D92010A4321212560E4
:1017A000A060116021680029FCDAE360082313605F
:1017B000F8BD80229201E4E740420F0000C00240E1
:1017C00000E0004000C0004000F000408023024ADA
:1017D0009B000343D362704700800540AA22064B5A
:1017E00012011A602F220549DA60054A11605A6811
:1017F000002AFCDA7047C0460040024000B0FA0000
:101800000060024010B5002801D000F0D9FB10BDE7
:101810001FB5094B1C68002C09D001220300009160
:101820000648524203A9A047012004B010BD00F0B1
:10183000E1FB2000F9E7C0462C0400200518001049
:1018400001480421014B1847F001002071180010D5
:10185000142310B50100188804331B88984710BD65
:10186000162310B50100188802331B88984710BD55
:10187000F8B50E00040000270125B74201D1280069
:10188000F8BD2068FFF7E4FF01C4431E98414042C1
:1018900005400137F1E70000114A936F9B0813D20E
:1018A00010665166002905D0FFE7FFE7FFE7516F9B
:1018B000106F704704B5002801D00020C04300F02D
:1018C000EBFB002104BDC046F0B5146E556E576F9A
:1018D000166FFFF7E5FF1466556657671667F0BD8C
:1018E000000000D094464E4A926F9208624601D2A0
:1018F00030E0C046F0B54A4EB56F6D08FCD3346E8B
:10190000756E776F366F00F025F89446444A14667A
:101910005566576716676246F0BDC0469446404A12
:10192000926F9208624601D258E0C046F0B53C4E34
:10193000B56F6D08FCD3346E756E776F366F00F03F
:101940004DF89446364A14665566576716676246E0
:10195000F0BDC046002B24DB11D000293EDA00B5D3
:10196000C943404200D1013100F038F8C943404238
:1019700000D10131DB43524200D1013300BD002AC6
:10198000EBD1002801D1002905D00020C90FC907DB
:1019900001D1C043410800B500F076FB00220023CE
:1019A00000BD00B500290ADBDB43524200D1013300
:1019B00000F014F8C943404200D1013100BDC943D1
:1019C000404200D10131DB43524200D1013300F0EB
:1019D00005F8DB43524200D1013300BD002923D179
:1019E000002B18D1002A0CD0BC460D4F38667A6601
:1019F00000210023FFE7FFE7FFE77A6F386F6746B4
:101A00007047002801D00748010000B500F03CFBFA
:101A10000022002300BD02000B00002000217047BF
:101A2000000000D0FFFFFFFF002B00D0BFE0130C31
:101A300028D1002AE7D080B4114F39667A66FFE7D3
:101A4000FFE730B4040C7B6F396F1B0423433B6604
:101A50007A66FFE7FFE7FFE7C04684B27B6F3D6F22
:101A60001B0423433B667A66FFE7FFE7C04600237B
:101A70002C042D0C7A6F386F00196941B0BC704787
:101A8000000000D0F0B594460025140E01D11202DA
:101A90000835140F01D112010435940F01D19200C1
:101AA0000235D40F01D152000135D40B0134254F3A
:101AB0007C66254C3C660E0C93B2FFE7FFE7FFE720
:101AC0003C6F6643360C7703BE467343DF0B5B0403
:101AD000C01AB941130C7343DB18C91ACE08664308
:101AE000360CB64493B273431F0F1B01C01AB941A1
:101AF000130C73431F0B1B05C01AB941860D8F02CF
:101B00003E436643360C092D24DB520A7243801A89
:101B10007703460A6643360C16235B1BDE40DF4024
:101B2000BF1964466643821B7046043506330100C4
:101B3000D940A840C01900D30131A24206D20023E7
:101B4000F0BD0000000000D0FFFFFFFF121B0130BE
:101B5000F3D3F1E709277F1BFE406446A2B272432C
:101B6000801A00D20139220C7243130C1204821A1B
:101B700099410B007046043513370100F940A84025
:101B8000801900D30131002B02D1A2420AD2F0BD4C
:101B9000013000D30131121BFAD2013BF8D1A2422D
:101BA00000D2F0BD013000D30131121BF7E7F0B5D0
:101BB0001C0C00D080E00CB400251C0A04D11B02D0
:101BC000160E3343120208351C0B04D11B01160FED
:101BD0003343120104359C0B04D19B00960F334311
:101BE00092000235DC0B02D192185B4101351C00DA
:101BF000971864410134464F7C66464C3C660E0C97
:101C0000FFE7FFE7FFE7C0463C6F6643360C77030C
:101C1000BE4697B27743C01B00D20139C01B00D229
:101C200001399FB27743C91BC91B170C77437E0448
:101C3000FF0B801BB941CE086643360C0C2D33DBFD
:101C4000B644120B1F053A431B0B97B27743C01BD8
:101C500000D201399FB27743C91B170C77433E046A
:101C60003F0C801BB941860D8F023E4366432927F6
:101C70007F1BFE400C3D7746AF40BF1930BCA2B27F
:101C8000ABB272437343801A9941220C7243130C16
:101C90001204801A994102000B000137001BA94170
:101CA000F9D2781E0021F0BD0C277F1BFE4077463D
:101CB0007F0BAF40FF19E0E700245D1C07D0144FF5
:101CC0007D663966FFE7FFE7FFE7FFE73C6F95B208
:101CD0009EB265436643401BB141150C1E0C654323
:101CE000664336042F0C3E432D04401BB1419942FC
:101CF00004D202000B0020000021F0BD01D190426F
:101D0000F7D3801A994101349942F2D3F6E70000E3
:101D1000000000D0FFFFFFFF132370B51C780F4DAC
:101D2000012C0ED100230E499A000133A950202B1B
:101D3000FAD10B4BAB640B48FFF78AFD0A4B1860D6
:101D400070BD012CF5DD0948FFF78AFD80220100F6
:101D5000280000F089F8022CEDD1EAE740040020C9
:101D6000711D00104C33000040050020534400005A
:101D700007B5604601880A0A0230DF2AFAD1C9B2E3
:101D8000820804D3028840880004104300E0006801
:101D9000014A5050039007BD400400205143434383
:101DA000C9188C46110C83B24B4310B4040C614328
:101DB00092B280B2504362431C041B0C001910BC49
:101DC00059411304120CC01851416144704700007E
:101DD000132310B510481C78FFF742FD0100012CB9
:101DE00013D10E4C5422200000F03EF815230C4A6B
:101DF000990001336250202BFAD12262E261094836
:101E0000FFF726FD084B186010BD012CF7DD80227E
:101E1000024800F029F8F2E753460000440500208C
:101E20002D1E00104C3300004005002007B5604611
:101E300001880A0A0230DF2AFAD1C9B2820804D323
:101E4000028840880004104300E00068014A5050B6
:101E5000039007BD4405002001480421014B1847A9
:101E60000002002071180010014B5B681847000049
:101E700000020020030010B5080011001B689847FD
:101E800010BD0000F8B50C000021437C05001600D1
:101E900008008B421ED1110020002B689847F8BD26
:101EA000002927D0631E5B5C0D3B5A425341DBB2D5
:101EB000625C4F1C0A2A0CD1002B0AD1814203DD3F
:101EC000091A2B68201898470D4802212B6898475B
:101ED000380039008E42E3DC86420DDD311A2B6872
:101EE00020189847A419013C23780D3B5A425341CE
:101EF0002B74D4E72B7CDBE7002ED0DDF2E7C04665
:101F000067210010D02337B5084D1B06280001A912
:101F10001C6800F0C9F8002807D1019B64B29C42FC
:101F200003D0280000F0C8F801203EBD10020020B8
:101F300010B5024800F0A0F810BDC0461002002005
:101F4000F0B585B006000D001C000092FFF7DAFF27
:101F500001906B1C03D1300000F05CF80500144FB9
:101F6000002C00D1134F144B1C68002C06D1019B90
:101F7000002B01D0FFF7DCFF05B0F0BD2368002B7C
:101F800013D00E4B1B68002B01D09C420DD12A00B0
:101F900031002000B847009B002B06D002ABD91DB2
:101FA0000A23012220000B70B847E468DDE7C04631
:101FB000751E0010851E0010840300208803002079
:101FC00013B56B460400D81D002301211A000470CC
:101FD000FFF7B6FF200016BD054B10B51C68002C9E
:101FE00000D110BD6368002B00D09847E468F6E785
:101FF0008403002070B5050000F00CF80400010017
:10200000002328000122FFF79BFFFFF7E5FF2000D8
:1020100070BD000010B583070AD00300032102E061
:1020200001330B4205D01A78002AF9D1181A10BDD5
:10203000030019680C4A0D4C8A188A4322420FD1BA
:102040005968094A04338A188A43224208D15968D8
:10205000054A04338A188A432242F1D000E0013352
:102060001A78002AFBD1E1E7FFFEFEFE8080808027
:10207000F8B5C0460000000001B40248844601BC27
:10208000604700BF4501002001B40248844601BCFE
:10209000604700BF6D01002001B40248844601BCC6
:1020A000604700BF6D01002001B40248844601BCB6
:1020B000604700BF0301002001B40248844601BC10
:0820C000604700BFC1000020D1
:1020C800486172647761726520616C61726D202568
:1020D8006420616C726561647920636C61696D6507
:1020E80064000A2A2A2A2050414E4943202A2A2AD3
:1020F8000A004861726420617373657274004D69E7
:102108006E53697A6552656C00626F6F74325F77DF
:1021180032357130383000312E332E31007069631A
:102128006F00525032303430544F50433938004ADF
:10213800756E20323220323032320006005250BBE7
:10214800FF3CB62521001006005250E182887F111D
:1021580021001006005250D3F07542062100100DE0
:042168000A00000069
:10216C00B4020010A80200109C02001043210010C1
:0C217C00900200104F2100105B210010A9
:10218800D02330B5002400211B061C570568EFF347
:10219800108372B62A68002AFCD0BFF35F8F0579D6
:1021A80002687F2D06D90471BFF35F8F116083F336
:1021B800108830BDBFF35F8F116083F3108820BF94
:1021C800E4E7030010B50068EFF3108472B6026804
:1021D800002AFCD0BFF35F8F04229A56002A0CDA3B
:1021E800D0220120120612681A711B68BFF35F8F94
:1021F80000221A6084F3108810BD081EF5D0002054
:102208000A60F2E70168EFF3108372B60A68002AE1
:10221800FCD0BFF35F8FFF2202710268BFF35F8FAC
:102228000021116083F3108840BF70477047C04693
:10223800100000008C010020000000003002002087
:102248005D06002000000000000000006D06002070
:102258000000000000000000100000000000000066
:102268000000010000000000000000000000020063
:102278000000000000000000000003000000000053
:10228800000000000000FF000000000000B54868E2
:1022980001318E460047704609380149884700BD1C
:1022A8006916001000000000000000000000000097
:1022B800503300004C330000543300005233000008
:1022C8004D5300004D4300005334000043340000D8
:1022D8000000000000000000591E00104118001006
:0C22E800191D0010D11D0010ED020010A7
:04000005100001E9FD
:00000001FF
